{
  "_format": "hh-sol-artifact-1",
  "contractName": "SyntheticDreams",
  "sourceName": "contracts/AINFT.sol",
  "abi": [
    {
      "inputs": [],
      "stateMutability": "nonpayable",
      "type": "constructor"
    },
    {
      "anonymous": false,
      "inputs": [
        {
          "indexed": true,
          "internalType": "address",
          "name": "owner",
          "type": "address"
        },
        {
          "indexed": true,
          "internalType": "address",
          "name": "approved",
          "type": "address"
        },
        {
          "indexed": true,
          "internalType": "uint256",
          "name": "tokenId",
          "type": "uint256"
        }
      ],
      "name": "Approval",
      "type": "event"
    },
    {
      "anonymous": false,
      "inputs": [
        {
          "indexed": true,
          "internalType": "address",
          "name": "owner",
          "type": "address"
        },
        {
          "indexed": true,
          "internalType": "address",
          "name": "operator",
          "type": "address"
        },
        {
          "indexed": false,
          "internalType": "bool",
          "name": "approved",
          "type": "bool"
        }
      ],
      "name": "ApprovalForAll",
      "type": "event"
    },
    {
      "anonymous": false,
      "inputs": [
        {
          "indexed": true,
          "internalType": "address",
          "name": "previousOwner",
          "type": "address"
        },
        {
          "indexed": true,
          "internalType": "address",
          "name": "newOwner",
          "type": "address"
        }
      ],
      "name": "OwnershipTransferred",
      "type": "event"
    },
    {
      "anonymous": false,
      "inputs": [
        {
          "indexed": true,
          "internalType": "address",
          "name": "from",
          "type": "address"
        },
        {
          "indexed": true,
          "internalType": "address",
          "name": "to",
          "type": "address"
        },
        {
          "indexed": true,
          "internalType": "uint256",
          "name": "tokenId",
          "type": "uint256"
        }
      ],
      "name": "Transfer",
      "type": "event"
    },
    {
      "inputs": [
        {
          "internalType": "address",
          "name": "to",
          "type": "address"
        },
        {
          "internalType": "uint256",
          "name": "tokenId",
          "type": "uint256"
        }
      ],
      "name": "approve",
      "outputs": [],
      "stateMutability": "nonpayable",
      "type": "function"
    },
    {
      "inputs": [
        {
          "internalType": "address",
          "name": "owner",
          "type": "address"
        }
      ],
      "name": "balanceOf",
      "outputs": [
        {
          "internalType": "uint256",
          "name": "",
          "type": "uint256"
        }
      ],
      "stateMutability": "view",
      "type": "function"
    },
    {
      "inputs": [],
      "name": "contractURI",
      "outputs": [
        {
          "internalType": "string",
          "name": "",
          "type": "string"
        }
      ],
      "stateMutability": "pure",
      "type": "function"
    },
    {
      "inputs": [
        {
          "internalType": "uint256",
          "name": "tokenId",
          "type": "uint256"
        }
      ],
      "name": "getApproved",
      "outputs": [
        {
          "internalType": "address",
          "name": "",
          "type": "address"
        }
      ],
      "stateMutability": "view",
      "type": "function"
    },
    {
      "inputs": [],
      "name": "getCurrentToken",
      "outputs": [
        {
          "internalType": "uint256",
          "name": "",
          "type": "uint256"
        }
      ],
      "stateMutability": "view",
      "type": "function"
    },
    {
      "inputs": [],
      "name": "getListPrice",
      "outputs": [
        {
          "internalType": "uint256",
          "name": "",
          "type": "uint256"
        }
      ],
      "stateMutability": "view",
      "type": "function"
    },
    {
      "inputs": [
        {
          "internalType": "address",
          "name": "owner",
          "type": "address"
        },
        {
          "internalType": "address",
          "name": "operator",
          "type": "address"
        }
      ],
      "name": "isApprovedForAll",
      "outputs": [
        {
          "internalType": "bool",
          "name": "",
          "type": "bool"
        }
      ],
      "stateMutability": "view",
      "type": "function"
    },
    {
      "inputs": [
        {
          "internalType": "bytes32",
          "name": "textId",
          "type": "bytes32"
        }
      ],
      "name": "isTextMinted",
      "outputs": [
        {
          "internalType": "bool",
          "name": "",
          "type": "bool"
        }
      ],
      "stateMutability": "view",
      "type": "function"
    },
    {
      "inputs": [
        {
          "internalType": "address",
          "name": "recipient",
          "type": "address"
        },
        {
          "internalType": "string",
          "name": "tokenURI",
          "type": "string"
        },
        {
          "internalType": "bytes32",
          "name": "textId",
          "type": "bytes32"
        }
      ],
      "name": "mintToken",
      "outputs": [
        {
          "internalType": "uint256",
          "name": "",
          "type": "uint256"
        }
      ],
      "stateMutability": "payable",
      "type": "function"
    },
    {
      "inputs": [],
      "name": "name",
      "outputs": [
        {
          "internalType": "string",
          "name": "",
          "type": "string"
        }
      ],
      "stateMutability": "view",
      "type": "function"
    },
    {
      "inputs": [],
      "name": "owner",
      "outputs": [
        {
          "internalType": "address",
          "name": "",
          "type": "address"
        }
      ],
      "stateMutability": "view",
      "type": "function"
    },
    {
      "inputs": [
        {
          "internalType": "uint256",
          "name": "tokenId",
          "type": "uint256"
        }
      ],
      "name": "ownerOf",
      "outputs": [
        {
          "internalType": "address",
          "name": "",
          "type": "address"
        }
      ],
      "stateMutability": "view",
      "type": "function"
    },
    {
      "inputs": [],
      "name": "renounceOwnership",
      "outputs": [],
      "stateMutability": "nonpayable",
      "type": "function"
    },
    {
      "inputs": [
        {
          "internalType": "address",
          "name": "from",
          "type": "address"
        },
        {
          "internalType": "address",
          "name": "to",
          "type": "address"
        },
        {
          "internalType": "uint256",
          "name": "tokenId",
          "type": "uint256"
        }
      ],
      "name": "safeTransferFrom",
      "outputs": [],
      "stateMutability": "nonpayable",
      "type": "function"
    },
    {
      "inputs": [
        {
          "internalType": "address",
          "name": "from",
          "type": "address"
        },
        {
          "internalType": "address",
          "name": "to",
          "type": "address"
        },
        {
          "internalType": "uint256",
          "name": "tokenId",
          "type": "uint256"
        },
        {
          "internalType": "bytes",
          "name": "data",
          "type": "bytes"
        }
      ],
      "name": "safeTransferFrom",
      "outputs": [],
      "stateMutability": "nonpayable",
      "type": "function"
    },
    {
      "inputs": [
        {
          "internalType": "address",
          "name": "operator",
          "type": "address"
        },
        {
          "internalType": "bool",
          "name": "approved",
          "type": "bool"
        }
      ],
      "name": "setApprovalForAll",
      "outputs": [],
      "stateMutability": "nonpayable",
      "type": "function"
    },
    {
      "inputs": [
        {
          "internalType": "bytes4",
          "name": "interfaceId",
          "type": "bytes4"
        }
      ],
      "name": "supportsInterface",
      "outputs": [
        {
          "internalType": "bool",
          "name": "",
          "type": "bool"
        }
      ],
      "stateMutability": "view",
      "type": "function"
    },
    {
      "inputs": [],
      "name": "symbol",
      "outputs": [
        {
          "internalType": "string",
          "name": "",
          "type": "string"
        }
      ],
      "stateMutability": "view",
      "type": "function"
    },
    {
      "inputs": [
        {
          "internalType": "uint256",
          "name": "tokenId",
          "type": "uint256"
        }
      ],
      "name": "tokenURI",
      "outputs": [
        {
          "internalType": "string",
          "name": "",
          "type": "string"
        }
      ],
      "stateMutability": "view",
      "type": "function"
    },
    {
      "inputs": [
        {
          "internalType": "address",
          "name": "from",
          "type": "address"
        },
        {
          "internalType": "address",
          "name": "to",
          "type": "address"
        },
        {
          "internalType": "uint256",
          "name": "tokenId",
          "type": "uint256"
        }
      ],
      "name": "transferFrom",
      "outputs": [],
      "stateMutability": "nonpayable",
      "type": "function"
    },
    {
      "inputs": [
        {
          "internalType": "address",
          "name": "newOwner",
          "type": "address"
        }
      ],
      "name": "transferOwnership",
      "outputs": [],
      "stateMutability": "nonpayable",
      "type": "function"
    },
    {
      "inputs": [
        {
          "internalType": "uint256",
          "name": "_newListPrice",
          "type": "uint256"
        }
      ],
      "name": "updateListPrice",
      "outputs": [],
      "stateMutability": "nonpayable",
      "type": "function"
    },
    {
      "inputs": [
        {
          "internalType": "address",
          "name": "",
          "type": "address"
        }
      ],
      "name": "walletMints",
      "outputs": [
        {
          "internalType": "uint256",
          "name": "",
          "type": "uint256"
        }
      ],
      "stateMutability": "view",
      "type": "function"
    }
  ],
  "bytecode": "0x608060405266b1a2bc2ec50000600955662386f26fc10000600a55612710600b556005600c553480156200003257600080fd5b506040518060400160405280601081526020017f53796e74686574696320447265616d73000000000000000000000000000000008152506040518060400160405280600281526020017f53440000000000000000000000000000000000000000000000000000000000008152508160009080519060200190620000b7929190620001c7565b508060019080519060200190620000d0929190620001c7565b505050620000f3620000e7620000f960201b60201c565b6200010160201b60201c565b620002dc565b600033905090565b6000600760009054906101000a900473ffffffffffffffffffffffffffffffffffffffff16905081600760006101000a81548173ffffffffffffffffffffffffffffffffffffffff021916908373ffffffffffffffffffffffffffffffffffffffff1602179055508173ffffffffffffffffffffffffffffffffffffffff168173ffffffffffffffffffffffffffffffffffffffff167f8be0079c531659141344cd1fd0a4f28419497f9722a3daafe3b4186f6b6457e060405160405180910390a35050565b828054620001d59062000277565b90600052602060002090601f016020900481019282620001f9576000855562000245565b82601f106200021457805160ff191683800117855562000245565b8280016001018555821562000245579182015b828111156200024457825182559160200191906001019062000227565b5b50905062000254919062000258565b5090565b5b808211156200027357600081600090555060010162000259565b5090565b600060028204905060018216806200029057607f821691505b60208210811415620002a757620002a6620002ad565b5b50919050565b7f4e487b7100000000000000000000000000000000000000000000000000000000600052602260045260246000fd5b61347d80620002ec6000396000f3fe6080604052600436106101405760003560e01c80638da5cb5b116100b6578063e8a3d4851161006f578063e8a3d4851461045f578063e985e9c51461048a578063ef2d1746146104c7578063f0293fd3146104f2578063f2fde38b1461052f578063f92ae6e91461055857610140565b80638da5cb5b1461035157806395d89b411461037c578063a22cb465146103a7578063b88d4fde146103d0578063c322579c146103f9578063c87b56dd1461042257610140565b806323b872dd1161010857806323b872dd1461024357806342842e0e1461026c5780636352211e1461029557806368f1945f146102d257806370a08231146102fd578063715018a61461033a57610140565b806301ffc9a71461014557806306fdde0314610182578063081812fc146101ad578063095ea7b3146101ea5780631584816614610213575b600080fd5b34801561015157600080fd5b5061016c6004803603810190610167919061242d565b610595565b6040516101799190612879565b60405180910390f35b34801561018e57600080fd5b50610197610677565b6040516101a49190612894565b60405180910390f35b3480156101b957600080fd5b506101d460048036038101906101cf919061247f565b610709565b6040516101e19190612812565b60405180910390f35b3480156101f657600080fd5b50610211600480360381019061020c91906123c8565b61074f565b005b61022d60048036038101906102289190612361565b610867565b60405161023a9190612af6565b60405180910390f35b34801561024f57600080fd5b5061026a6004803603810190610265919061225b565b610b3b565b005b34801561027857600080fd5b50610293600480360381019061028e919061225b565b610b9b565b005b3480156102a157600080fd5b506102bc60048036038101906102b7919061247f565b610bbb565b6040516102c99190612812565b60405180910390f35b3480156102de57600080fd5b506102e7610c6d565b6040516102f49190612af6565b60405180910390f35b34801561030957600080fd5b50610324600480360381019061031f91906121f6565b610c77565b6040516103319190612af6565b60405180910390f35b34801561034657600080fd5b5061034f610d2f565b005b34801561035d57600080fd5b50610366610d43565b6040516103739190612812565b60405180910390f35b34801561038857600080fd5b50610391610d6d565b60405161039e9190612894565b60405180910390f35b3480156103b357600080fd5b506103ce60048036038101906103c99190612325565b610dff565b005b3480156103dc57600080fd5b506103f760048036038101906103f291906122aa565b610e15565b005b34801561040557600080fd5b50610420600480360381019061041b919061247f565b610e77565b005b34801561042e57600080fd5b506104496004803603810190610444919061247f565b610e89565b6040516104569190612894565b60405180910390f35b34801561046b57600080fd5b50610474610f9c565b6040516104819190612894565b60405180910390f35b34801561049657600080fd5b506104b160048036038101906104ac919061221f565b610fbc565b6040516104be9190612879565b60405180910390f35b3480156104d357600080fd5b506104dc611050565b6040516104e99190612af6565b60405180910390f35b3480156104fe57600080fd5b50610519600480360381019061051491906121f6565b611061565b6040516105269190612af6565b60405180910390f35b34801561053b57600080fd5b50610556600480360381019061055191906121f6565b611079565b005b34801561056457600080fd5b5061057f600480360381019061057a9190612404565b6110fd565b60405161058c9190612879565b60405180910390f35b60007f80ac58cd000000000000000000000000000000000000000000000000000000007bffffffffffffffffffffffffffffffffffffffffffffffffffffffff1916827bffffffffffffffffffffffffffffffffffffffffffffffffffffffff1916148061066057507f5b5e139f000000000000000000000000000000000000000000000000000000007bffffffffffffffffffffffffffffffffffffffffffffffffffffffff1916827bffffffffffffffffffffffffffffffffffffffffffffffffffffffff1916145b80610670575061066f8261113f565b5b9050919050565b60606000805461068690612d56565b80601f01602080910402602001604051908101604052809291908181526020018280546106b290612d56565b80156106ff5780601f106106d4576101008083540402835291602001916106ff565b820191906000526020600020905b8154815290600101906020018083116106e257829003601f168201915b5050505050905090565b6000610714826111a9565b6004600083815260200190815260200160002060009054906101000a900473ffffffffffffffffffffffffffffffffffffffff169050919050565b600061075a82610bbb565b90508073ffffffffffffffffffffffffffffffffffffffff168373ffffffffffffffffffffffffffffffffffffffff1614156107cb576040517f08c379a00000000000000000000000000000000000000000000000000000000081526004016107c290612a56565b60405180910390fd5b8073ffffffffffffffffffffffffffffffffffffffff166107ea6111f4565b73ffffffffffffffffffffffffffffffffffffffff1614806108195750610818816108136111f4565b610fbc565b5b610858576040517f08c379a000000000000000000000000000000000000000000000000000000000815260040161084f906129d6565b60405180910390fd5b61086283836111fc565b505050565b600060095434146108ad576040517f08c379a00000000000000000000000000000000000000000000000000000000081526004016108a490612ad6565b60405180910390fd5b60001515600d600084815260200190815260200160002060009054906101000a900460ff16151514610914576040517f08c379a000000000000000000000000000000000000000000000000000000000815260040161090b90612a76565b60405180910390fd5b600c54600f60008673ffffffffffffffffffffffffffffffffffffffff1673ffffffffffffffffffffffffffffffffffffffff168152602001908152602001600020541115610998576040517f08c379a000000000000000000000000000000000000000000000000000000000815260040161098f90612976565b60405180910390fd5b6001600d600084815260200190815260200160002060006101000a81548160ff0219169083151502179055506109ce60086112b5565b60006109da60086112cb565b9050600b54811115610a21576040517f08c379a0000000000000000000000000000000000000000000000000000000008152600401610a1890612ab6565b60405180910390fd5b82600e600083815260200190815260200160002081905550610a4385826112d9565b610a4d81856112f7565b610a55610d43565b73ffffffffffffffffffffffffffffffffffffffff166108fc349081150290604051600060405180830381858888f19350505050158015610a9a573d6000803e3d6000fd5b506000600f60008773ffffffffffffffffffffffffffffffffffffffff1673ffffffffffffffffffffffffffffffffffffffff168152602001908152602001600020549050600181610aec9190612bdb565b600f60008873ffffffffffffffffffffffffffffffffffffffff1673ffffffffffffffffffffffffffffffffffffffff1681526020019081526020016000208190555081925050509392505050565b610b4c610b466111f4565b8261136b565b610b8b576040517f08c379a0000000000000000000000000000000000000000000000000000000008152600401610b8290612a96565b60405180910390fd5b610b96838383611400565b505050565b610bb683838360405180602001604052806000815250610e15565b505050565b6000806002600084815260200190815260200160002060009054906101000a900473ffffffffffffffffffffffffffffffffffffffff169050600073ffffffffffffffffffffffffffffffffffffffff168173ffffffffffffffffffffffffffffffffffffffff161415610c64576040517f08c379a0000000000000000000000000000000000000000000000000000000008152600401610c5b90612a36565b60405180910390fd5b80915050919050565b6000600a54905090565b60008073ffffffffffffffffffffffffffffffffffffffff168273ffffffffffffffffffffffffffffffffffffffff161415610ce8576040517f08c379a0000000000000000000000000000000000000000000000000000000008152600401610cdf90612996565b60405180910390fd5b600360008373ffffffffffffffffffffffffffffffffffffffff1673ffffffffffffffffffffffffffffffffffffffff168152602001908152602001600020549050919050565b610d37611667565b610d4160006116e5565b565b6000600760009054906101000a900473ffffffffffffffffffffffffffffffffffffffff16905090565b606060018054610d7c90612d56565b80601f0160208091040260200160405190810160405280929190818152602001828054610da890612d56565b8015610df55780601f10610dca57610100808354040283529160200191610df5565b820191906000526020600020905b815481529060010190602001808311610dd857829003601f168201915b5050505050905090565b610e11610e0a6111f4565b83836117ab565b5050565b610e26610e206111f4565b8361136b565b610e65576040517f08c379a0000000000000000000000000000000000000000000000000000000008152600401610e5c90612a96565b60405180910390fd5b610e7184848484611918565b50505050565b610e7f611667565b80600a8190555050565b6060610e94826111a9565b6000600660008481526020019081526020016000208054610eb490612d56565b80601f0160208091040260200160405190810160405280929190818152602001828054610ee090612d56565b8015610f2d5780601f10610f0257610100808354040283529160200191610f2d565b820191906000526020600020905b815481529060010190602001808311610f1057829003601f168201915b505050505090506000610f3e611974565b9050600081511415610f54578192505050610f97565b600082511115610f89578082604051602001610f719291906127ee565b60405160208183030381529060405292505050610f97565b610f928461198b565b925050505b919050565b60606040518060800160405280605081526020016133f860509139905090565b6000600560008473ffffffffffffffffffffffffffffffffffffffff1673ffffffffffffffffffffffffffffffffffffffff16815260200190815260200160002060008373ffffffffffffffffffffffffffffffffffffffff1673ffffffffffffffffffffffffffffffffffffffff16815260200190815260200160002060009054906101000a900460ff16905092915050565b600061105c60086112cb565b905090565b600f6020528060005260406000206000915090505481565b611081611667565b600073ffffffffffffffffffffffffffffffffffffffff168173ffffffffffffffffffffffffffffffffffffffff1614156110f1576040517f08c379a00000000000000000000000000000000000000000000000000000000081526004016110e8906128d6565b60405180910390fd5b6110fa816116e5565b50565b600060011515600d600084815260200190815260200160002060009054906101000a900460ff1615151415611135576001905061113a565b600090505b919050565b60007f01ffc9a7000000000000000000000000000000000000000000000000000000007bffffffffffffffffffffffffffffffffffffffffffffffffffffffff1916827bffffffffffffffffffffffffffffffffffffffffffffffffffffffff1916149050919050565b6111b2816119f3565b6111f1576040517f08c379a00000000000000000000000000000000000000000000000000000000081526004016111e890612a36565b60405180910390fd5b50565b600033905090565b816004600083815260200190815260200160002060006101000a81548173ffffffffffffffffffffffffffffffffffffffff021916908373ffffffffffffffffffffffffffffffffffffffff160217905550808273ffffffffffffffffffffffffffffffffffffffff1661126f83610bbb565b73ffffffffffffffffffffffffffffffffffffffff167f8c5be1e5ebec7d5bd14f71427d1e84f3dd0314c0f7b2291e5b200ac8c7c3b92560405160405180910390a45050565b6001816000016000828254019250508190555050565b600081600001549050919050565b6112f3828260405180602001604052806000815250611a5f565b5050565b611300826119f3565b61133f576040517f08c379a0000000000000000000000000000000000000000000000000000000008152600401611336906129b6565b60405180910390fd5b80600660008481526020019081526020016000209080519060200190611366929190612005565b505050565b60008061137783610bbb565b90508073ffffffffffffffffffffffffffffffffffffffff168473ffffffffffffffffffffffffffffffffffffffff1614806113b957506113b88185610fbc565b5b806113f757508373ffffffffffffffffffffffffffffffffffffffff166113df84610709565b73ffffffffffffffffffffffffffffffffffffffff16145b91505092915050565b8273ffffffffffffffffffffffffffffffffffffffff1661142082610bbb565b73ffffffffffffffffffffffffffffffffffffffff1614611476576040517f08c379a000000000000000000000000000000000000000000000000000000000815260040161146d906128f6565b60405180910390fd5b600073ffffffffffffffffffffffffffffffffffffffff168273ffffffffffffffffffffffffffffffffffffffff1614156114e6576040517f08c379a00000000000000000000000000000000000000000000000000000000081526004016114dd90612936565b60405180910390fd5b6114f1838383611aba565b6114fc6000826111fc565b6001600360008573ffffffffffffffffffffffffffffffffffffffff1673ffffffffffffffffffffffffffffffffffffffff168152602001908152602001600020600082825461154c9190612c62565b925050819055506001600360008473ffffffffffffffffffffffffffffffffffffffff1673ffffffffffffffffffffffffffffffffffffffff16815260200190815260200160002060008282546115a39190612bdb565b92505081905550816002600083815260200190815260200160002060006101000a81548173ffffffffffffffffffffffffffffffffffffffff021916908373ffffffffffffffffffffffffffffffffffffffff160217905550808273ffffffffffffffffffffffffffffffffffffffff168473ffffffffffffffffffffffffffffffffffffffff167fddf252ad1be2c89b69c2b068fc378daa952ba7f163c4a11628f55a4df523b3ef60405160405180910390a4611662838383611abf565b505050565b61166f6111f4565b73ffffffffffffffffffffffffffffffffffffffff1661168d610d43565b73ffffffffffffffffffffffffffffffffffffffff16146116e3576040517f08c379a00000000000000000000000000000000000000000000000000000000081526004016116da90612a16565b60405180910390fd5b565b6000600760009054906101000a900473ffffffffffffffffffffffffffffffffffffffff16905081600760006101000a81548173ffffffffffffffffffffffffffffffffffffffff021916908373ffffffffffffffffffffffffffffffffffffffff1602179055508173ffffffffffffffffffffffffffffffffffffffff168173ffffffffffffffffffffffffffffffffffffffff167f8be0079c531659141344cd1fd0a4f28419497f9722a3daafe3b4186f6b6457e060405160405180910390a35050565b8173ffffffffffffffffffffffffffffffffffffffff168373ffffffffffffffffffffffffffffffffffffffff16141561181a576040517f08c379a000000000000000000000000000000000000000000000000000000000815260040161181190612956565b60405180910390fd5b80600560008573ffffffffffffffffffffffffffffffffffffffff1673ffffffffffffffffffffffffffffffffffffffff16815260200190815260200160002060008473ffffffffffffffffffffffffffffffffffffffff1673ffffffffffffffffffffffffffffffffffffffff16815260200190815260200160002060006101000a81548160ff0219169083151502179055508173ffffffffffffffffffffffffffffffffffffffff168373ffffffffffffffffffffffffffffffffffffffff167f17307eab39ab6107e8899845ad3d59bd9653f200f220920489ca2b5937696c318360405161190b9190612879565b60405180910390a3505050565b611923848484611400565b61192f84848484611ac4565b61196e576040517f08c379a0000000000000000000000000000000000000000000000000000000008152600401611965906128b6565b60405180910390fd5b50505050565b606060405180602001604052806000815250905090565b6060611996826111a9565b60006119a0611974565b905060008151116119c057604051806020016040528060008152506119eb565b806119ca84611c5b565b6040516020016119db9291906127ee565b6040516020818303038152906040525b915050919050565b60008073ffffffffffffffffffffffffffffffffffffffff166002600084815260200190815260200160002060009054906101000a900473ffffffffffffffffffffffffffffffffffffffff1673ffffffffffffffffffffffffffffffffffffffff1614159050919050565b611a698383611e08565b611a766000848484611ac4565b611ab5576040517f08c379a0000000000000000000000000000000000000000000000000000000008152600401611aac906128b6565b60405180910390fd5b505050565b505050565b505050565b6000611ae58473ffffffffffffffffffffffffffffffffffffffff16611fe2565b15611c4e578373ffffffffffffffffffffffffffffffffffffffff1663150b7a02611b0e6111f4565b8786866040518563ffffffff1660e01b8152600401611b30949392919061282d565b602060405180830381600087803b158015611b4a57600080fd5b505af1925050508015611b7b57506040513d601f19601f82011682018060405250810190611b789190612456565b60015b611bfe573d8060008114611bab576040519150601f19603f3d011682016040523d82523d6000602084013e611bb0565b606091505b50600081511415611bf6576040517f08c379a0000000000000000000000000000000000000000000000000000000008152600401611bed906128b6565b60405180910390fd5b805181602001fd5b63150b7a0260e01b7bffffffffffffffffffffffffffffffffffffffffffffffffffffffff1916817bffffffffffffffffffffffffffffffffffffffffffffffffffffffff191614915050611c53565b600190505b949350505050565b60606000821415611ca3576040518060400160405280600181526020017f30000000000000000000000000000000000000000000000000000000000000008152509050611e03565b600082905060005b60008214611cd5578080611cbe90612db9565b915050600a82611cce9190612c31565b9150611cab565b60008167ffffffffffffffff811115611d17577f4e487b7100000000000000000000000000000000000000000000000000000000600052604160045260246000fd5b6040519080825280601f01601f191660200182016040528015611d495781602001600182028036833780820191505090505b5090505b60008514611dfc57600182611d629190612c62565b9150600a85611d719190612e02565b6030611d7d9190612bdb565b60f81b818381518110611db9577f4e487b7100000000000000000000000000000000000000000000000000000000600052603260045260246000fd5b60200101907effffffffffffffffffffffffffffffffffffffffffffffffffffffffffffff1916908160001a905350600a85611df59190612c31565b9450611d4d565b8093505050505b919050565b600073ffffffffffffffffffffffffffffffffffffffff168273ffffffffffffffffffffffffffffffffffffffff161415611e78576040517f08c379a0000000000000000000000000000000000000000000000000000000008152600401611e6f906129f6565b60405180910390fd5b611e81816119f3565b15611ec1576040517f08c379a0000000000000000000000000000000000000000000000000000000008152600401611eb890612916565b60405180910390fd5b611ecd60008383611aba565b6001600360008473ffffffffffffffffffffffffffffffffffffffff1673ffffffffffffffffffffffffffffffffffffffff1681526020019081526020016000206000828254611f1d9190612bdb565b92505081905550816002600083815260200190815260200160002060006101000a81548173ffffffffffffffffffffffffffffffffffffffff021916908373ffffffffffffffffffffffffffffffffffffffff160217905550808273ffffffffffffffffffffffffffffffffffffffff16600073ffffffffffffffffffffffffffffffffffffffff167fddf252ad1be2c89b69c2b068fc378daa952ba7f163c4a11628f55a4df523b3ef60405160405180910390a4611fde60008383611abf565b5050565b6000808273ffffffffffffffffffffffffffffffffffffffff163b119050919050565b82805461201190612d56565b90600052602060002090601f016020900481019282612033576000855561207a565b82601f1061204c57805160ff191683800117855561207a565b8280016001018555821561207a579182015b8281111561207957825182559160200191906001019061205e565b5b509050612087919061208b565b5090565b5b808211156120a457600081600090555060010161208c565b5090565b60006120bb6120b684612b36565b612b11565b9050828152602081018484840111156120d357600080fd5b6120de848285612d14565b509392505050565b60006120f96120f484612b67565b612b11565b90508281526020810184848401111561211157600080fd5b61211c848285612d14565b509392505050565b60008135905061213381613384565b92915050565b6000813590506121488161339b565b92915050565b60008135905061215d816133b2565b92915050565b600081359050612172816133c9565b92915050565b600081519050612187816133c9565b92915050565b600082601f83011261219e57600080fd5b81356121ae8482602086016120a8565b91505092915050565b600082601f8301126121c857600080fd5b81356121d88482602086016120e6565b91505092915050565b6000813590506121f0816133e0565b92915050565b60006020828403121561220857600080fd5b600061221684828501612124565b91505092915050565b6000806040838503121561223257600080fd5b600061224085828601612124565b925050602061225185828601612124565b9150509250929050565b60008060006060848603121561227057600080fd5b600061227e86828701612124565b935050602061228f86828701612124565b92505060406122a0868287016121e1565b9150509250925092565b600080600080608085870312156122c057600080fd5b60006122ce87828801612124565b94505060206122df87828801612124565b93505060406122f0878288016121e1565b925050606085013567ffffffffffffffff81111561230d57600080fd5b6123198782880161218d565b91505092959194509250565b6000806040838503121561233857600080fd5b600061234685828601612124565b925050602061235785828601612139565b9150509250929050565b60008060006060848603121561237657600080fd5b600061238486828701612124565b935050602084013567ffffffffffffffff8111156123a157600080fd5b6123ad868287016121b7565b92505060406123be8682870161214e565b9150509250925092565b600080604083850312156123db57600080fd5b60006123e985828601612124565b92505060206123fa858286016121e1565b9150509250929050565b60006020828403121561241657600080fd5b60006124248482850161214e565b91505092915050565b60006020828403121561243f57600080fd5b600061244d84828501612163565b91505092915050565b60006020828403121561246857600080fd5b600061247684828501612178565b91505092915050565b60006020828403121561249157600080fd5b600061249f848285016121e1565b91505092915050565b6124b181612c96565b82525050565b6124c081612ca8565b82525050565b60006124d182612b98565b6124db8185612bae565b93506124eb818560208601612d23565b6124f481612eef565b840191505092915050565b600061250a82612ba3565b6125148185612bbf565b9350612524818560208601612d23565b61252d81612eef565b840191505092915050565b600061254382612ba3565b61254d8185612bd0565b935061255d818560208601612d23565b80840191505092915050565b6000612576603283612bbf565b915061258182612f00565b604082019050919050565b6000612599602683612bbf565b91506125a482612f4f565b604082019050919050565b60006125bc602583612bbf565b91506125c782612f9e565b604082019050919050565b60006125df601c83612bbf565b91506125ea82612fed565b602082019050919050565b6000612602602483612bbf565b915061260d82613016565b604082019050919050565b6000612625601983612bbf565b915061263082613065565b602082019050919050565b6000612648602283612bbf565b91506126538261308e565b604082019050919050565b600061266b602983612bbf565b9150612676826130dd565b604082019050919050565b600061268e602e83612bbf565b91506126998261312c565b604082019050919050565b60006126b1603e83612bbf565b91506126bc8261317b565b604082019050919050565b60006126d4602083612bbf565b91506126df826131ca565b602082019050919050565b60006126f7602083612bbf565b9150612702826131f3565b602082019050919050565b600061271a601883612bbf565b91506127258261321c565b602082019050919050565b600061273d602183612bbf565b915061274882613245565b604082019050919050565b6000612760601c83612bbf565b915061276b82613294565b602082019050919050565b6000612783602e83612bbf565b915061278e826132bd565b604082019050919050565b60006127a6602283612bbf565b91506127b18261330c565b604082019050919050565b60006127c9601f83612bbf565b91506127d48261335b565b602082019050919050565b6127e881612d0a565b82525050565b60006127fa8285612538565b91506128068284612538565b91508190509392505050565b600060208201905061282760008301846124a8565b92915050565b600060808201905061284260008301876124a8565b61284f60208301866124a8565b61285c60408301856127df565b818103606083015261286e81846124c6565b905095945050505050565b600060208201905061288e60008301846124b7565b92915050565b600060208201905081810360008301526128ae81846124ff565b905092915050565b600060208201905081810360008301526128cf81612569565b9050919050565b600060208201905081810360008301526128ef8161258c565b9050919050565b6000602082019050818103600083015261290f816125af565b9050919050565b6000602082019050818103600083015261292f816125d2565b9050919050565b6000602082019050818103600083015261294f816125f5565b9050919050565b6000602082019050818103600083015261296f81612618565b9050919050565b6000602082019050818103600083015261298f8161263b565b9050919050565b600060208201905081810360008301526129af8161265e565b9050919050565b600060208201905081810360008301526129cf81612681565b9050919050565b600060208201905081810360008301526129ef816126a4565b9050919050565b60006020820190508181036000830152612a0f816126c7565b9050919050565b60006020820190508181036000830152612a2f816126ea565b9050919050565b60006020820190508181036000830152612a4f8161270d565b9050919050565b60006020820190508181036000830152612a6f81612730565b9050919050565b60006020820190508181036000830152612a8f81612753565b9050919050565b60006020820190508181036000830152612aaf81612776565b9050919050565b60006020820190508181036000830152612acf81612799565b9050919050565b60006020820190508181036000830152612aef816127bc565b9050919050565b6000602082019050612b0b60008301846127df565b92915050565b6000612b1b612b2c565b9050612b278282612d88565b919050565b6000604051905090565b600067ffffffffffffffff821115612b5157612b50612ec0565b5b612b5a82612eef565b9050602081019050919050565b600067ffffffffffffffff821115612b8257612b81612ec0565b5b612b8b82612eef565b9050602081019050919050565b600081519050919050565b600081519050919050565b600082825260208201905092915050565b600082825260208201905092915050565b600081905092915050565b6000612be682612d0a565b9150612bf183612d0a565b9250827fffffffffffffffffffffffffffffffffffffffffffffffffffffffffffffffff03821115612c2657612c25612e33565b5b828201905092915050565b6000612c3c82612d0a565b9150612c4783612d0a565b925082612c5757612c56612e62565b5b828204905092915050565b6000612c6d82612d0a565b9150612c7883612d0a565b925082821015612c8b57612c8a612e33565b5b828203905092915050565b6000612ca182612cea565b9050919050565b60008115159050919050565b6000819050919050565b60007fffffffff0000000000000000000000000000000000000000000000000000000082169050919050565b600073ffffffffffffffffffffffffffffffffffffffff82169050919050565b6000819050919050565b82818337600083830152505050565b60005b83811015612d41578082015181840152602081019050612d26565b83811115612d50576000848401525b50505050565b60006002820490506001821680612d6e57607f821691505b60208210811415612d8257612d81612e91565b5b50919050565b612d9182612eef565b810181811067ffffffffffffffff82111715612db057612daf612ec0565b5b80604052505050565b6000612dc482612d0a565b91507fffffffffffffffffffffffffffffffffffffffffffffffffffffffffffffffff821415612df757612df6612e33565b5b600182019050919050565b6000612e0d82612d0a565b9150612e1883612d0a565b925082612e2857612e27612e62565b5b828206905092915050565b7f4e487b7100000000000000000000000000000000000000000000000000000000600052601160045260246000fd5b7f4e487b7100000000000000000000000000000000000000000000000000000000600052601260045260246000fd5b7f4e487b7100000000000000000000000000000000000000000000000000000000600052602260045260246000fd5b7f4e487b7100000000000000000000000000000000000000000000000000000000600052604160045260246000fd5b6000601f19601f8301169050919050565b7f4552433732313a207472616e7366657220746f206e6f6e20455243373231526560008201527f63656976657220696d706c656d656e7465720000000000000000000000000000602082015250565b7f4f776e61626c653a206e6577206f776e657220697320746865207a65726f206160008201527f6464726573730000000000000000000000000000000000000000000000000000602082015250565b7f4552433732313a207472616e736665722066726f6d20696e636f72726563742060008201527f6f776e6572000000000000000000000000000000000000000000000000000000602082015250565b7f4552433732313a20746f6b656e20616c7265616479206d696e74656400000000600082015250565b7f4552433732313a207472616e7366657220746f20746865207a65726f2061646460008201527f7265737300000000000000000000000000000000000000000000000000000000602082015250565b7f4552433732313a20617070726f766520746f2063616c6c657200000000000000600082015250565b7f596f75206861766520616c7265616479206d696e74656420796f7572206c696d60008201527f6974000000000000000000000000000000000000000000000000000000000000602082015250565b7f4552433732313a2061646472657373207a65726f206973206e6f74206120766160008201527f6c6964206f776e65720000000000000000000000000000000000000000000000602082015250565b7f45524337323155524953746f726167653a2055524920736574206f66206e6f6e60008201527f6578697374656e7420746f6b656e000000000000000000000000000000000000602082015250565b7f4552433732313a20617070726f76652063616c6c6572206973206e6f7420746f60008201527f6b656e206f776e6572206e6f7220617070726f76656420666f7220616c6c0000602082015250565b7f4552433732313a206d696e7420746f20746865207a65726f2061646472657373600082015250565b7f4f776e61626c653a2063616c6c6572206973206e6f7420746865206f776e6572600082015250565b7f4552433732313a20696e76616c696420746f6b656e2049440000000000000000600082015250565b7f4552433732313a20617070726f76616c20746f2063757272656e74206f776e6560008201527f7200000000000000000000000000000000000000000000000000000000000000602082015250565b7f546578742068617320616c72656479206265656e20636c61696d656400000000600082015250565b7f4552433732313a2063616c6c6572206973206e6f7420746f6b656e206f776e6560008201527f72206e6f7220617070726f766564000000000000000000000000000000000000602082015250565b7f54686973204e46542070726f6a65637420686173206265656e20736f6c64206f60008201527f7574000000000000000000000000000000000000000000000000000000000000602082015250565b7f6265657020626f6f70206e656564206d6f72652065746820746f206d696e7400600082015250565b61338d81612c96565b811461339857600080fd5b50565b6133a481612ca8565b81146133af57600080fd5b50565b6133bb81612cb4565b81146133c657600080fd5b50565b6133d281612cbe565b81146133dd57600080fd5b50565b6133e981612d0a565b81146133f457600080fd5b5056fe68747470733a2f2f676174657761792e70696e6174612e636c6f75642f697066732f516d596944646759374e78736633664e6e4355574e4856746e32666d53424d5959723151784e5338633565684557a26469706673582212200b5f912fd44c404a40dcb2d8b39b0e5fedb64e1129e6b19920201e118fdf463864736f6c63430008040033",
  "linkReferences": {},
  "deployedLinkReferences": {}
}