{
  "_format": "hh-sol-artifact-1",
  "contractName": "SyntheticDreams",
  "sourceName": "contracts/SyntheticDreams.sol",
  "abi": [
    {
      "inputs": [],
      "stateMutability": "nonpayable",
      "type": "constructor"
    },
    {
      "anonymous": false,
      "inputs": [
        {
          "indexed": true,
          "internalType": "address",
          "name": "owner",
          "type": "address"
        },
        {
          "indexed": true,
          "internalType": "address",
          "name": "approved",
          "type": "address"
        },
        {
          "indexed": true,
          "internalType": "uint256",
          "name": "tokenId",
          "type": "uint256"
        }
      ],
      "name": "Approval",
      "type": "event"
    },
    {
      "anonymous": false,
      "inputs": [
        {
          "indexed": true,
          "internalType": "address",
          "name": "owner",
          "type": "address"
        },
        {
          "indexed": true,
          "internalType": "address",
          "name": "operator",
          "type": "address"
        },
        {
          "indexed": false,
          "internalType": "bool",
          "name": "approved",
          "type": "bool"
        }
      ],
      "name": "ApprovalForAll",
      "type": "event"
    },
    {
      "anonymous": false,
      "inputs": [
        {
          "indexed": true,
          "internalType": "address",
          "name": "previousOwner",
          "type": "address"
        },
        {
          "indexed": true,
          "internalType": "address",
          "name": "newOwner",
          "type": "address"
        }
      ],
      "name": "OwnershipTransferred",
      "type": "event"
    },
    {
      "anonymous": false,
      "inputs": [
        {
          "indexed": true,
          "internalType": "address",
          "name": "from",
          "type": "address"
        },
        {
          "indexed": true,
          "internalType": "address",
          "name": "to",
          "type": "address"
        },
        {
          "indexed": true,
          "internalType": "uint256",
          "name": "tokenId",
          "type": "uint256"
        }
      ],
      "name": "Transfer",
      "type": "event"
    },
    {
      "inputs": [
        {
          "internalType": "address",
          "name": "to",
          "type": "address"
        },
        {
          "internalType": "uint256",
          "name": "tokenId",
          "type": "uint256"
        }
      ],
      "name": "approve",
      "outputs": [],
      "stateMutability": "nonpayable",
      "type": "function"
    },
    {
      "inputs": [
        {
          "internalType": "address",
          "name": "owner",
          "type": "address"
        }
      ],
      "name": "balanceOf",
      "outputs": [
        {
          "internalType": "uint256",
          "name": "",
          "type": "uint256"
        }
      ],
      "stateMutability": "view",
      "type": "function"
    },
    {
      "inputs": [],
      "name": "contractURI",
      "outputs": [
        {
          "internalType": "string",
          "name": "",
          "type": "string"
        }
      ],
      "stateMutability": "pure",
      "type": "function"
    },
    {
      "inputs": [
        {
          "internalType": "uint256",
          "name": "tokenId",
          "type": "uint256"
        }
      ],
      "name": "getApproved",
      "outputs": [
        {
          "internalType": "address",
          "name": "",
          "type": "address"
        }
      ],
      "stateMutability": "view",
      "type": "function"
    },
    {
      "inputs": [],
      "name": "getCurrentToken",
      "outputs": [
        {
          "internalType": "uint256",
          "name": "",
          "type": "uint256"
        }
      ],
      "stateMutability": "view",
      "type": "function"
    },
    {
      "inputs": [],
      "name": "getListPrice",
      "outputs": [
        {
          "internalType": "uint256",
          "name": "",
          "type": "uint256"
        }
      ],
      "stateMutability": "view",
      "type": "function"
    },
    {
      "inputs": [
        {
          "internalType": "address",
          "name": "owner",
          "type": "address"
        },
        {
          "internalType": "address",
          "name": "operator",
          "type": "address"
        }
      ],
      "name": "isApprovedForAll",
      "outputs": [
        {
          "internalType": "bool",
          "name": "",
          "type": "bool"
        }
      ],
      "stateMutability": "view",
      "type": "function"
    },
    {
      "inputs": [
        {
          "internalType": "bytes32",
          "name": "textId",
          "type": "bytes32"
        }
      ],
      "name": "isTextMinted",
      "outputs": [
        {
          "internalType": "bool",
          "name": "",
          "type": "bool"
        }
      ],
      "stateMutability": "view",
      "type": "function"
    },
    {
      "inputs": [
        {
          "internalType": "address",
          "name": "recipient",
          "type": "address"
        },
        {
          "internalType": "string",
          "name": "tokenURI",
          "type": "string"
        },
        {
          "internalType": "bytes32",
          "name": "textId",
          "type": "bytes32"
        }
      ],
      "name": "mintToken",
      "outputs": [
        {
          "internalType": "uint256",
          "name": "",
          "type": "uint256"
        }
      ],
      "stateMutability": "payable",
      "type": "function"
    },
    {
      "inputs": [],
      "name": "name",
      "outputs": [
        {
          "internalType": "string",
          "name": "",
          "type": "string"
        }
      ],
      "stateMutability": "view",
      "type": "function"
    },
    {
      "inputs": [],
      "name": "owner",
      "outputs": [
        {
          "internalType": "address",
          "name": "",
          "type": "address"
        }
      ],
      "stateMutability": "view",
      "type": "function"
    },
    {
      "inputs": [
        {
          "internalType": "uint256",
          "name": "tokenId",
          "type": "uint256"
        }
      ],
      "name": "ownerOf",
      "outputs": [
        {
          "internalType": "address",
          "name": "",
          "type": "address"
        }
      ],
      "stateMutability": "view",
      "type": "function"
    },
    {
      "inputs": [],
      "name": "renounceOwnership",
      "outputs": [],
      "stateMutability": "nonpayable",
      "type": "function"
    },
    {
      "inputs": [
        {
          "internalType": "address",
          "name": "from",
          "type": "address"
        },
        {
          "internalType": "address",
          "name": "to",
          "type": "address"
        },
        {
          "internalType": "uint256",
          "name": "tokenId",
          "type": "uint256"
        }
      ],
      "name": "safeTransferFrom",
      "outputs": [],
      "stateMutability": "nonpayable",
      "type": "function"
    },
    {
      "inputs": [
        {
          "internalType": "address",
          "name": "from",
          "type": "address"
        },
        {
          "internalType": "address",
          "name": "to",
          "type": "address"
        },
        {
          "internalType": "uint256",
          "name": "tokenId",
          "type": "uint256"
        },
        {
          "internalType": "bytes",
          "name": "data",
          "type": "bytes"
        }
      ],
      "name": "safeTransferFrom",
      "outputs": [],
      "stateMutability": "nonpayable",
      "type": "function"
    },
    {
      "inputs": [
        {
          "internalType": "address",
          "name": "operator",
          "type": "address"
        },
        {
          "internalType": "bool",
          "name": "approved",
          "type": "bool"
        }
      ],
      "name": "setApprovalForAll",
      "outputs": [],
      "stateMutability": "nonpayable",
      "type": "function"
    },
    {
      "inputs": [
        {
          "internalType": "bytes4",
          "name": "interfaceId",
          "type": "bytes4"
        }
      ],
      "name": "supportsInterface",
      "outputs": [
        {
          "internalType": "bool",
          "name": "",
          "type": "bool"
        }
      ],
      "stateMutability": "view",
      "type": "function"
    },
    {
      "inputs": [],
      "name": "symbol",
      "outputs": [
        {
          "internalType": "string",
          "name": "",
          "type": "string"
        }
      ],
      "stateMutability": "view",
      "type": "function"
    },
    {
      "inputs": [
        {
          "internalType": "uint256",
          "name": "tokenId",
          "type": "uint256"
        }
      ],
      "name": "tokenURI",
      "outputs": [
        {
          "internalType": "string",
          "name": "",
          "type": "string"
        }
      ],
      "stateMutability": "view",
      "type": "function"
    },
    {
      "inputs": [
        {
          "internalType": "address",
          "name": "from",
          "type": "address"
        },
        {
          "internalType": "address",
          "name": "to",
          "type": "address"
        },
        {
          "internalType": "uint256",
          "name": "tokenId",
          "type": "uint256"
        }
      ],
      "name": "transferFrom",
      "outputs": [],
      "stateMutability": "nonpayable",
      "type": "function"
    },
    {
      "inputs": [
        {
          "internalType": "address",
          "name": "newOwner",
          "type": "address"
        }
      ],
      "name": "transferOwnership",
      "outputs": [],
      "stateMutability": "nonpayable",
      "type": "function"
    },
    {
      "inputs": [
        {
          "internalType": "uint256",
          "name": "_newListPrice",
          "type": "uint256"
        }
      ],
      "name": "updateListPrice",
      "outputs": [],
      "stateMutability": "nonpayable",
      "type": "function"
    },
    {
      "inputs": [
        {
          "internalType": "uint256",
          "name": "tokenId",
          "type": "uint256"
        },
        {
          "internalType": "string",
          "name": "newTokenURI",
          "type": "string"
        }
      ],
      "name": "updateTokenURI",
      "outputs": [],
      "stateMutability": "nonpayable",
      "type": "function"
    },
    {
      "inputs": [
        {
          "internalType": "address",
          "name": "",
          "type": "address"
        }
      ],
      "name": "walletMints",
      "outputs": [
        {
          "internalType": "uint256",
          "name": "",
          "type": "uint256"
        }
      ],
      "stateMutability": "view",
      "type": "function"
    }
  ],
  "bytecode": "0x6080604052666a94d74f430000600955662386f26fc10000600a55612710600b556005600c553480156200003257600080fd5b506040518060400160405280601081526020017f53796e74686574696320447265616d73000000000000000000000000000000008152506040518060400160405280600281526020017f53440000000000000000000000000000000000000000000000000000000000008152508160009080519060200190620000b7929190620001c7565b508060019080519060200190620000d0929190620001c7565b505050620000f3620000e7620000f960201b60201c565b6200010160201b60201c565b620002dc565b600033905090565b6000600760009054906101000a900473ffffffffffffffffffffffffffffffffffffffff16905081600760006101000a81548173ffffffffffffffffffffffffffffffffffffffff021916908373ffffffffffffffffffffffffffffffffffffffff1602179055508173ffffffffffffffffffffffffffffffffffffffff168173ffffffffffffffffffffffffffffffffffffffff167f8be0079c531659141344cd1fd0a4f28419497f9722a3daafe3b4186f6b6457e060405160405180910390a35050565b828054620001d59062000277565b90600052602060002090601f016020900481019282620001f9576000855562000245565b82601f106200021457805160ff191683800117855562000245565b8280016001018555821562000245579182015b828111156200024457825182559160200191906001019062000227565b5b50905062000254919062000258565b5090565b5b808211156200027357600081600090555060010162000259565b5090565b600060028204905060018216806200029057607f821691505b60208210811415620002a757620002a6620002ad565b5b50919050565b7f4e487b7100000000000000000000000000000000000000000000000000000000600052602260045260246000fd5b61351b80620002ec6000396000f3fe60806040526004361061014b5760003560e01c80638da5cb5b116100b6578063e8a3d4851161006f578063e8a3d48514610493578063e985e9c5146104be578063ef2d1746146104fb578063f0293fd314610526578063f2fde38b14610563578063f92ae6e91461058c5761014b565b80638da5cb5b1461038557806395d89b41146103b0578063a22cb465146103db578063b88d4fde14610404578063c322579c1461042d578063c87b56dd146104565761014b565b806323b872dd1161010857806323b872dd1461027757806342842e0e146102a05780636352211e146102c957806368f1945f1461030657806370a0823114610331578063715018a61461036e5761014b565b806301ffc9a71461015057806306fdde031461018d578063081812fc146101b8578063095ea7b3146101f5578063158481661461021e57806318e97fd11461024e575b600080fd5b34801561015c57600080fd5b5061017760048036038101906101729190612477565b6105c9565b6040516101849190612917565b60405180910390f35b34801561019957600080fd5b506101a26106ab565b6040516101af9190612932565b60405180910390f35b3480156101c457600080fd5b506101df60048036038101906101da91906124c9565b61073d565b6040516101ec91906128b0565b60405180910390f35b34801561020157600080fd5b5061021c60048036038101906102179190612412565b610783565b005b610238600480360381019061023391906123ab565b61089b565b6040516102459190612b94565b60405180910390f35b34801561025a57600080fd5b50610275600480360381019061027091906124f2565b610b6f565b005b34801561028357600080fd5b5061029e600480360381019061029991906122a5565b610b85565b005b3480156102ac57600080fd5b506102c760048036038101906102c291906122a5565b610be5565b005b3480156102d557600080fd5b506102f060048036038101906102eb91906124c9565b610c05565b6040516102fd91906128b0565b60405180910390f35b34801561031257600080fd5b5061031b610cb7565b6040516103289190612b94565b60405180910390f35b34801561033d57600080fd5b5061035860048036038101906103539190612240565b610cc1565b6040516103659190612b94565b60405180910390f35b34801561037a57600080fd5b50610383610d79565b005b34801561039157600080fd5b5061039a610d8d565b6040516103a791906128b0565b60405180910390f35b3480156103bc57600080fd5b506103c5610db7565b6040516103d29190612932565b60405180910390f35b3480156103e757600080fd5b5061040260048036038101906103fd919061236f565b610e49565b005b34801561041057600080fd5b5061042b600480360381019061042691906122f4565b610e5f565b005b34801561043957600080fd5b50610454600480360381019061044f91906124c9565b610ec1565b005b34801561046257600080fd5b5061047d600480360381019061047891906124c9565b610ed3565b60405161048a9190612932565b60405180910390f35b34801561049f57600080fd5b506104a8610fe6565b6040516104b59190612932565b60405180910390f35b3480156104ca57600080fd5b506104e560048036038101906104e09190612269565b611006565b6040516104f29190612917565b60405180910390f35b34801561050757600080fd5b5061051061109a565b60405161051d9190612b94565b60405180910390f35b34801561053257600080fd5b5061054d60048036038101906105489190612240565b6110ab565b60405161055a9190612b94565b60405180910390f35b34801561056f57600080fd5b5061058a60048036038101906105859190612240565b6110c3565b005b34801561059857600080fd5b506105b360048036038101906105ae919061244e565b611147565b6040516105c09190612917565b60405180910390f35b60007f80ac58cd000000000000000000000000000000000000000000000000000000007bffffffffffffffffffffffffffffffffffffffffffffffffffffffff1916827bffffffffffffffffffffffffffffffffffffffffffffffffffffffff1916148061069457507f5b5e139f000000000000000000000000000000000000000000000000000000007bffffffffffffffffffffffffffffffffffffffffffffffffffffffff1916827bffffffffffffffffffffffffffffffffffffffffffffffffffffffff1916145b806106a457506106a382611189565b5b9050919050565b6060600080546106ba90612df4565b80601f01602080910402602001604051908101604052809291908181526020018280546106e690612df4565b80156107335780601f1061070857610100808354040283529160200191610733565b820191906000526020600020905b81548152906001019060200180831161071657829003601f168201915b5050505050905090565b6000610748826111f3565b6004600083815260200190815260200160002060009054906101000a900473ffffffffffffffffffffffffffffffffffffffff169050919050565b600061078e82610c05565b90508073ffffffffffffffffffffffffffffffffffffffff168373ffffffffffffffffffffffffffffffffffffffff1614156107ff576040517f08c379a00000000000000000000000000000000000000000000000000000000081526004016107f690612af4565b60405180910390fd5b8073ffffffffffffffffffffffffffffffffffffffff1661081e61123e565b73ffffffffffffffffffffffffffffffffffffffff16148061084d575061084c8161084761123e565b611006565b5b61088c576040517f08c379a000000000000000000000000000000000000000000000000000000000815260040161088390612a74565b60405180910390fd5b6108968383611246565b505050565b600060095434146108e1576040517f08c379a00000000000000000000000000000000000000000000000000000000081526004016108d890612b74565b60405180910390fd5b60001515600d600084815260200190815260200160002060009054906101000a900460ff16151514610948576040517f08c379a000000000000000000000000000000000000000000000000000000000815260040161093f90612b14565b60405180910390fd5b600c54600f60008673ffffffffffffffffffffffffffffffffffffffff1673ffffffffffffffffffffffffffffffffffffffff1681526020019081526020016000205411156109cc576040517f08c379a00000000000000000000000000000000000000000000000000000000081526004016109c390612a14565b60405180910390fd5b6001600d600084815260200190815260200160002060006101000a81548160ff021916908315150217905550610a0260086112ff565b6000610a0e6008611315565b9050600b54811115610a55576040517f08c379a0000000000000000000000000000000000000000000000000000000008152600401610a4c90612b54565b60405180910390fd5b82600e600083815260200190815260200160002081905550610a778582611323565b610a818185611341565b610a89610d8d565b73ffffffffffffffffffffffffffffffffffffffff166108fc349081150290604051600060405180830381858888f19350505050158015610ace573d6000803e3d6000fd5b506000600f60008773ffffffffffffffffffffffffffffffffffffffff1673ffffffffffffffffffffffffffffffffffffffff168152602001908152602001600020549050600181610b209190612c79565b600f60008873ffffffffffffffffffffffffffffffffffffffff1673ffffffffffffffffffffffffffffffffffffffff1681526020019081526020016000208190555081925050509392505050565b610b776113b5565b610b818282611341565b5050565b610b96610b9061123e565b82611433565b610bd5576040517f08c379a0000000000000000000000000000000000000000000000000000000008152600401610bcc90612b34565b60405180910390fd5b610be08383836114c8565b505050565b610c0083838360405180602001604052806000815250610e5f565b505050565b6000806002600084815260200190815260200160002060009054906101000a900473ffffffffffffffffffffffffffffffffffffffff169050600073ffffffffffffffffffffffffffffffffffffffff168173ffffffffffffffffffffffffffffffffffffffff161415610cae576040517f08c379a0000000000000000000000000000000000000000000000000000000008152600401610ca590612ad4565b60405180910390fd5b80915050919050565b6000600a54905090565b60008073ffffffffffffffffffffffffffffffffffffffff168273ffffffffffffffffffffffffffffffffffffffff161415610d32576040517f08c379a0000000000000000000000000000000000000000000000000000000008152600401610d2990612a34565b60405180910390fd5b600360008373ffffffffffffffffffffffffffffffffffffffff1673ffffffffffffffffffffffffffffffffffffffff168152602001908152602001600020549050919050565b610d816113b5565b610d8b600061172f565b565b6000600760009054906101000a900473ffffffffffffffffffffffffffffffffffffffff16905090565b606060018054610dc690612df4565b80601f0160208091040260200160405190810160405280929190818152602001828054610df290612df4565b8015610e3f5780601f10610e1457610100808354040283529160200191610e3f565b820191906000526020600020905b815481529060010190602001808311610e2257829003601f168201915b5050505050905090565b610e5b610e5461123e565b83836117f5565b5050565b610e70610e6a61123e565b83611433565b610eaf576040517f08c379a0000000000000000000000000000000000000000000000000000000008152600401610ea690612b34565b60405180910390fd5b610ebb84848484611962565b50505050565b610ec96113b5565b80600a8190555050565b6060610ede826111f3565b6000600660008481526020019081526020016000208054610efe90612df4565b80601f0160208091040260200160405190810160405280929190818152602001828054610f2a90612df4565b8015610f775780601f10610f4c57610100808354040283529160200191610f77565b820191906000526020600020905b815481529060010190602001808311610f5a57829003601f168201915b505050505090506000610f886119be565b9050600081511415610f9e578192505050610fe1565b600082511115610fd3578082604051602001610fbb92919061288c565b60405160208183030381529060405292505050610fe1565b610fdc846119d5565b925050505b919050565b606060405180608001604052806050815260200161349660509139905090565b6000600560008473ffffffffffffffffffffffffffffffffffffffff1673ffffffffffffffffffffffffffffffffffffffff16815260200190815260200160002060008373ffffffffffffffffffffffffffffffffffffffff1673ffffffffffffffffffffffffffffffffffffffff16815260200190815260200160002060009054906101000a900460ff16905092915050565b60006110a66008611315565b905090565b600f6020528060005260406000206000915090505481565b6110cb6113b5565b600073ffffffffffffffffffffffffffffffffffffffff168173ffffffffffffffffffffffffffffffffffffffff16141561113b576040517f08c379a000000000000000000000000000000000000000000000000000000000815260040161113290612974565b60405180910390fd5b6111448161172f565b50565b600060011515600d600084815260200190815260200160002060009054906101000a900460ff161515141561117f5760019050611184565b600090505b919050565b60007f01ffc9a7000000000000000000000000000000000000000000000000000000007bffffffffffffffffffffffffffffffffffffffffffffffffffffffff1916827bffffffffffffffffffffffffffffffffffffffffffffffffffffffff1916149050919050565b6111fc81611a3d565b61123b576040517f08c379a000000000000000000000000000000000000000000000000000000000815260040161123290612ad4565b60405180910390fd5b50565b600033905090565b816004600083815260200190815260200160002060006101000a81548173ffffffffffffffffffffffffffffffffffffffff021916908373ffffffffffffffffffffffffffffffffffffffff160217905550808273ffffffffffffffffffffffffffffffffffffffff166112b983610c05565b73ffffffffffffffffffffffffffffffffffffffff167f8c5be1e5ebec7d5bd14f71427d1e84f3dd0314c0f7b2291e5b200ac8c7c3b92560405160405180910390a45050565b6001816000016000828254019250508190555050565b600081600001549050919050565b61133d828260405180602001604052806000815250611aa9565b5050565b61134a82611a3d565b611389576040517f08c379a000000000000000000000000000000000000000000000000000000000815260040161138090612a54565b60405180910390fd5b806006600084815260200190815260200160002090805190602001906113b092919061204f565b505050565b6113bd61123e565b73ffffffffffffffffffffffffffffffffffffffff166113db610d8d565b73ffffffffffffffffffffffffffffffffffffffff1614611431576040517f08c379a000000000000000000000000000000000000000000000000000000000815260040161142890612ab4565b60405180910390fd5b565b60008061143f83610c05565b90508073ffffffffffffffffffffffffffffffffffffffff168473ffffffffffffffffffffffffffffffffffffffff16148061148157506114808185611006565b5b806114bf57508373ffffffffffffffffffffffffffffffffffffffff166114a78461073d565b73ffffffffffffffffffffffffffffffffffffffff16145b91505092915050565b8273ffffffffffffffffffffffffffffffffffffffff166114e882610c05565b73ffffffffffffffffffffffffffffffffffffffff161461153e576040517f08c379a000000000000000000000000000000000000000000000000000000000815260040161153590612994565b60405180910390fd5b600073ffffffffffffffffffffffffffffffffffffffff168273ffffffffffffffffffffffffffffffffffffffff1614156115ae576040517f08c379a00000000000000000000000000000000000000000000000000000000081526004016115a5906129d4565b60405180910390fd5b6115b9838383611b04565b6115c4600082611246565b6001600360008573ffffffffffffffffffffffffffffffffffffffff1673ffffffffffffffffffffffffffffffffffffffff16815260200190815260200160002060008282546116149190612d00565b925050819055506001600360008473ffffffffffffffffffffffffffffffffffffffff1673ffffffffffffffffffffffffffffffffffffffff168152602001908152602001600020600082825461166b9190612c79565b92505081905550816002600083815260200190815260200160002060006101000a81548173ffffffffffffffffffffffffffffffffffffffff021916908373ffffffffffffffffffffffffffffffffffffffff160217905550808273ffffffffffffffffffffffffffffffffffffffff168473ffffffffffffffffffffffffffffffffffffffff167fddf252ad1be2c89b69c2b068fc378daa952ba7f163c4a11628f55a4df523b3ef60405160405180910390a461172a838383611b09565b505050565b6000600760009054906101000a900473ffffffffffffffffffffffffffffffffffffffff16905081600760006101000a81548173ffffffffffffffffffffffffffffffffffffffff021916908373ffffffffffffffffffffffffffffffffffffffff1602179055508173ffffffffffffffffffffffffffffffffffffffff168173ffffffffffffffffffffffffffffffffffffffff167f8be0079c531659141344cd1fd0a4f28419497f9722a3daafe3b4186f6b6457e060405160405180910390a35050565b8173ffffffffffffffffffffffffffffffffffffffff168373ffffffffffffffffffffffffffffffffffffffff161415611864576040517f08c379a000000000000000000000000000000000000000000000000000000000815260040161185b906129f4565b60405180910390fd5b80600560008573ffffffffffffffffffffffffffffffffffffffff1673ffffffffffffffffffffffffffffffffffffffff16815260200190815260200160002060008473ffffffffffffffffffffffffffffffffffffffff1673ffffffffffffffffffffffffffffffffffffffff16815260200190815260200160002060006101000a81548160ff0219169083151502179055508173ffffffffffffffffffffffffffffffffffffffff168373ffffffffffffffffffffffffffffffffffffffff167f17307eab39ab6107e8899845ad3d59bd9653f200f220920489ca2b5937696c31836040516119559190612917565b60405180910390a3505050565b61196d8484846114c8565b61197984848484611b0e565b6119b8576040517f08c379a00000000000000000000000000000000000000000000000000000000081526004016119af90612954565b60405180910390fd5b50505050565b606060405180602001604052806000815250905090565b60606119e0826111f3565b60006119ea6119be565b90506000815111611a0a5760405180602001604052806000815250611a35565b80611a1484611ca5565b604051602001611a2592919061288c565b6040516020818303038152906040525b915050919050565b60008073ffffffffffffffffffffffffffffffffffffffff166002600084815260200190815260200160002060009054906101000a900473ffffffffffffffffffffffffffffffffffffffff1673ffffffffffffffffffffffffffffffffffffffff1614159050919050565b611ab38383611e52565b611ac06000848484611b0e565b611aff576040517f08c379a0000000000000000000000000000000000000000000000000000000008152600401611af690612954565b60405180910390fd5b505050565b505050565b505050565b6000611b2f8473ffffffffffffffffffffffffffffffffffffffff1661202c565b15611c98578373ffffffffffffffffffffffffffffffffffffffff1663150b7a02611b5861123e565b8786866040518563ffffffff1660e01b8152600401611b7a94939291906128cb565b602060405180830381600087803b158015611b9457600080fd5b505af1925050508015611bc557506040513d601f19601f82011682018060405250810190611bc291906124a0565b60015b611c48573d8060008114611bf5576040519150601f19603f3d011682016040523d82523d6000602084013e611bfa565b606091505b50600081511415611c40576040517f08c379a0000000000000000000000000000000000000000000000000000000008152600401611c3790612954565b60405180910390fd5b805181602001fd5b63150b7a0260e01b7bffffffffffffffffffffffffffffffffffffffffffffffffffffffff1916817bffffffffffffffffffffffffffffffffffffffffffffffffffffffff191614915050611c9d565b600190505b949350505050565b60606000821415611ced576040518060400160405280600181526020017f30000000000000000000000000000000000000000000000000000000000000008152509050611e4d565b600082905060005b60008214611d1f578080611d0890612e57565b915050600a82611d189190612ccf565b9150611cf5565b60008167ffffffffffffffff811115611d61577f4e487b7100000000000000000000000000000000000000000000000000000000600052604160045260246000fd5b6040519080825280601f01601f191660200182016040528015611d935781602001600182028036833780820191505090505b5090505b60008514611e4657600182611dac9190612d00565b9150600a85611dbb9190612ea0565b6030611dc79190612c79565b60f81b818381518110611e03577f4e487b7100000000000000000000000000000000000000000000000000000000600052603260045260246000fd5b60200101907effffffffffffffffffffffffffffffffffffffffffffffffffffffffffffff1916908160001a905350600a85611e3f9190612ccf565b9450611d97565b8093505050505b919050565b600073ffffffffffffffffffffffffffffffffffffffff168273ffffffffffffffffffffffffffffffffffffffff161415611ec2576040517f08c379a0000000000000000000000000000000000000000000000000000000008152600401611eb990612a94565b60405180910390fd5b611ecb81611a3d565b15611f0b576040517f08c379a0000000000000000000000000000000000000000000000000000000008152600401611f02906129b4565b60405180910390fd5b611f1760008383611b04565b6001600360008473ffffffffffffffffffffffffffffffffffffffff1673ffffffffffffffffffffffffffffffffffffffff1681526020019081526020016000206000828254611f679190612c79565b92505081905550816002600083815260200190815260200160002060006101000a81548173ffffffffffffffffffffffffffffffffffffffff021916908373ffffffffffffffffffffffffffffffffffffffff160217905550808273ffffffffffffffffffffffffffffffffffffffff16600073ffffffffffffffffffffffffffffffffffffffff167fddf252ad1be2c89b69c2b068fc378daa952ba7f163c4a11628f55a4df523b3ef60405160405180910390a461202860008383611b09565b5050565b6000808273ffffffffffffffffffffffffffffffffffffffff163b119050919050565b82805461205b90612df4565b90600052602060002090601f01602090048101928261207d57600085556120c4565b82601f1061209657805160ff19168380011785556120c4565b828001600101855582156120c4579182015b828111156120c35782518255916020019190600101906120a8565b5b5090506120d191906120d5565b5090565b5b808211156120ee5760008160009055506001016120d6565b5090565b600061210561210084612bd4565b612baf565b90508281526020810184848401111561211d57600080fd5b612128848285612db2565b509392505050565b600061214361213e84612c05565b612baf565b90508281526020810184848401111561215b57600080fd5b612166848285612db2565b509392505050565b60008135905061217d81613422565b92915050565b60008135905061219281613439565b92915050565b6000813590506121a781613450565b92915050565b6000813590506121bc81613467565b92915050565b6000815190506121d181613467565b92915050565b600082601f8301126121e857600080fd5b81356121f88482602086016120f2565b91505092915050565b600082601f83011261221257600080fd5b8135612222848260208601612130565b91505092915050565b60008135905061223a8161347e565b92915050565b60006020828403121561225257600080fd5b60006122608482850161216e565b91505092915050565b6000806040838503121561227c57600080fd5b600061228a8582860161216e565b925050602061229b8582860161216e565b9150509250929050565b6000806000606084860312156122ba57600080fd5b60006122c88682870161216e565b93505060206122d98682870161216e565b92505060406122ea8682870161222b565b9150509250925092565b6000806000806080858703121561230a57600080fd5b60006123188782880161216e565b94505060206123298782880161216e565b935050604061233a8782880161222b565b925050606085013567ffffffffffffffff81111561235757600080fd5b612363878288016121d7565b91505092959194509250565b6000806040838503121561238257600080fd5b60006123908582860161216e565b92505060206123a185828601612183565b9150509250929050565b6000806000606084860312156123c057600080fd5b60006123ce8682870161216e565b935050602084013567ffffffffffffffff8111156123eb57600080fd5b6123f786828701612201565b925050604061240886828701612198565b9150509250925092565b6000806040838503121561242557600080fd5b60006124338582860161216e565b92505060206124448582860161222b565b9150509250929050565b60006020828403121561246057600080fd5b600061246e84828501612198565b91505092915050565b60006020828403121561248957600080fd5b6000612497848285016121ad565b91505092915050565b6000602082840312156124b257600080fd5b60006124c0848285016121c2565b91505092915050565b6000602082840312156124db57600080fd5b60006124e98482850161222b565b91505092915050565b6000806040838503121561250557600080fd5b60006125138582860161222b565b925050602083013567ffffffffffffffff81111561253057600080fd5b61253c85828601612201565b9150509250929050565b61254f81612d34565b82525050565b61255e81612d46565b82525050565b600061256f82612c36565b6125798185612c4c565b9350612589818560208601612dc1565b61259281612f8d565b840191505092915050565b60006125a882612c41565b6125b28185612c5d565b93506125c2818560208601612dc1565b6125cb81612f8d565b840191505092915050565b60006125e182612c41565b6125eb8185612c6e565b93506125fb818560208601612dc1565b80840191505092915050565b6000612614603283612c5d565b915061261f82612f9e565b604082019050919050565b6000612637602683612c5d565b915061264282612fed565b604082019050919050565b600061265a602583612c5d565b91506126658261303c565b604082019050919050565b600061267d601c83612c5d565b91506126888261308b565b602082019050919050565b60006126a0602483612c5d565b91506126ab826130b4565b604082019050919050565b60006126c3601983612c5d565b91506126ce82613103565b602082019050919050565b60006126e6602283612c5d565b91506126f18261312c565b604082019050919050565b6000612709602983612c5d565b91506127148261317b565b604082019050919050565b600061272c602e83612c5d565b9150612737826131ca565b604082019050919050565b600061274f603e83612c5d565b915061275a82613219565b604082019050919050565b6000612772602083612c5d565b915061277d82613268565b602082019050919050565b6000612795602083612c5d565b91506127a082613291565b602082019050919050565b60006127b8601883612c5d565b91506127c3826132ba565b602082019050919050565b60006127db602183612c5d565b91506127e6826132e3565b604082019050919050565b60006127fe601c83612c5d565b915061280982613332565b602082019050919050565b6000612821602e83612c5d565b915061282c8261335b565b604082019050919050565b6000612844602283612c5d565b915061284f826133aa565b604082019050919050565b6000612867601f83612c5d565b9150612872826133f9565b602082019050919050565b61288681612da8565b82525050565b600061289882856125d6565b91506128a482846125d6565b91508190509392505050565b60006020820190506128c56000830184612546565b92915050565b60006080820190506128e06000830187612546565b6128ed6020830186612546565b6128fa604083018561287d565b818103606083015261290c8184612564565b905095945050505050565b600060208201905061292c6000830184612555565b92915050565b6000602082019050818103600083015261294c818461259d565b905092915050565b6000602082019050818103600083015261296d81612607565b9050919050565b6000602082019050818103600083015261298d8161262a565b9050919050565b600060208201905081810360008301526129ad8161264d565b9050919050565b600060208201905081810360008301526129cd81612670565b9050919050565b600060208201905081810360008301526129ed81612693565b9050919050565b60006020820190508181036000830152612a0d816126b6565b9050919050565b60006020820190508181036000830152612a2d816126d9565b9050919050565b60006020820190508181036000830152612a4d816126fc565b9050919050565b60006020820190508181036000830152612a6d8161271f565b9050919050565b60006020820190508181036000830152612a8d81612742565b9050919050565b60006020820190508181036000830152612aad81612765565b9050919050565b60006020820190508181036000830152612acd81612788565b9050919050565b60006020820190508181036000830152612aed816127ab565b9050919050565b60006020820190508181036000830152612b0d816127ce565b9050919050565b60006020820190508181036000830152612b2d816127f1565b9050919050565b60006020820190508181036000830152612b4d81612814565b9050919050565b60006020820190508181036000830152612b6d81612837565b9050919050565b60006020820190508181036000830152612b8d8161285a565b9050919050565b6000602082019050612ba9600083018461287d565b92915050565b6000612bb9612bca565b9050612bc58282612e26565b919050565b6000604051905090565b600067ffffffffffffffff821115612bef57612bee612f5e565b5b612bf882612f8d565b9050602081019050919050565b600067ffffffffffffffff821115612c2057612c1f612f5e565b5b612c2982612f8d565b9050602081019050919050565b600081519050919050565b600081519050919050565b600082825260208201905092915050565b600082825260208201905092915050565b600081905092915050565b6000612c8482612da8565b9150612c8f83612da8565b9250827fffffffffffffffffffffffffffffffffffffffffffffffffffffffffffffffff03821115612cc457612cc3612ed1565b5b828201905092915050565b6000612cda82612da8565b9150612ce583612da8565b925082612cf557612cf4612f00565b5b828204905092915050565b6000612d0b82612da8565b9150612d1683612da8565b925082821015612d2957612d28612ed1565b5b828203905092915050565b6000612d3f82612d88565b9050919050565b60008115159050919050565b6000819050919050565b60007fffffffff0000000000000000000000000000000000000000000000000000000082169050919050565b600073ffffffffffffffffffffffffffffffffffffffff82169050919050565b6000819050919050565b82818337600083830152505050565b60005b83811015612ddf578082015181840152602081019050612dc4565b83811115612dee576000848401525b50505050565b60006002820490506001821680612e0c57607f821691505b60208210811415612e2057612e1f612f2f565b5b50919050565b612e2f82612f8d565b810181811067ffffffffffffffff82111715612e4e57612e4d612f5e565b5b80604052505050565b6000612e6282612da8565b91507fffffffffffffffffffffffffffffffffffffffffffffffffffffffffffffffff821415612e9557612e94612ed1565b5b600182019050919050565b6000612eab82612da8565b9150612eb683612da8565b925082612ec657612ec5612f00565b5b828206905092915050565b7f4e487b7100000000000000000000000000000000000000000000000000000000600052601160045260246000fd5b7f4e487b7100000000000000000000000000000000000000000000000000000000600052601260045260246000fd5b7f4e487b7100000000000000000000000000000000000000000000000000000000600052602260045260246000fd5b7f4e487b7100000000000000000000000000000000000000000000000000000000600052604160045260246000fd5b6000601f19601f8301169050919050565b7f4552433732313a207472616e7366657220746f206e6f6e20455243373231526560008201527f63656976657220696d706c656d656e7465720000000000000000000000000000602082015250565b7f4f776e61626c653a206e6577206f776e657220697320746865207a65726f206160008201527f6464726573730000000000000000000000000000000000000000000000000000602082015250565b7f4552433732313a207472616e736665722066726f6d20696e636f72726563742060008201527f6f776e6572000000000000000000000000000000000000000000000000000000602082015250565b7f4552433732313a20746f6b656e20616c7265616479206d696e74656400000000600082015250565b7f4552433732313a207472616e7366657220746f20746865207a65726f2061646460008201527f7265737300000000000000000000000000000000000000000000000000000000602082015250565b7f4552433732313a20617070726f766520746f2063616c6c657200000000000000600082015250565b7f596f75206861766520616c7265616479206d696e74656420796f7572206c696d60008201527f6974000000000000000000000000000000000000000000000000000000000000602082015250565b7f4552433732313a2061646472657373207a65726f206973206e6f74206120766160008201527f6c6964206f776e65720000000000000000000000000000000000000000000000602082015250565b7f45524337323155524953746f726167653a2055524920736574206f66206e6f6e60008201527f6578697374656e7420746f6b656e000000000000000000000000000000000000602082015250565b7f4552433732313a20617070726f76652063616c6c6572206973206e6f7420746f60008201527f6b656e206f776e6572206e6f7220617070726f76656420666f7220616c6c0000602082015250565b7f4552433732313a206d696e7420746f20746865207a65726f2061646472657373600082015250565b7f4f776e61626c653a2063616c6c6572206973206e6f7420746865206f776e6572600082015250565b7f4552433732313a20696e76616c696420746f6b656e2049440000000000000000600082015250565b7f4552433732313a20617070726f76616c20746f2063757272656e74206f776e6560008201527f7200000000000000000000000000000000000000000000000000000000000000602082015250565b7f546578742068617320616c72656479206265656e20636c61696d656400000000600082015250565b7f4552433732313a2063616c6c6572206973206e6f7420746f6b656e206f776e6560008201527f72206e6f7220617070726f766564000000000000000000000000000000000000602082015250565b7f54686973204e46542070726f6a65637420686173206265656e20736f6c64206f60008201527f7574000000000000000000000000000000000000000000000000000000000000602082015250565b7f6265657020626f6f70206e656564206d6f72652065746820746f206d696e7400600082015250565b61342b81612d34565b811461343657600080fd5b50565b61344281612d46565b811461344d57600080fd5b50565b61345981612d52565b811461346457600080fd5b50565b61347081612d5c565b811461347b57600080fd5b50565b61348781612da8565b811461349257600080fd5b5056fe68747470733a2f2f676174657761792e70696e6174612e636c6f75642f697066732f516d596944646759374e78736633664e6e4355574e4856746e32666d53424d5959723151784e5338633565684557a26469706673582212200e47515e03a8a6344346dbe8c67b96a26fd3fe2ea5617f60ac7eee86e977947b64736f6c63430008040033",
  "linkReferences": {},
  "deployedLinkReferences": {}
}